S0170000426F746F6E65736465416363696F6E2E737265631D
S11300000C9434000C943E000C943E000C943E007E
S11300100C943E000C943E000C943E000C943E0064
S11300200C943E000C943E000C943E000C943E0054
S11300300C943E000C943E000C943E000C943E0044
S11300400C943E000C943E000C943E000C943E0034
S11300500C943E000C943E000C943E000C943E0024
S11300600C943E000C943E0011241FBECFEFD8E048
S1130070DEBFCDBF0E9460000C9407010C94000009
S11300809093C5008093C40088E18093C10086E00A
S11300908093C20008959091C00095FFFCCF809397
S11300A0C60008958091C0008823E4F78091C600BB
S11300B008958AB183708AB98BB18C6F8BB9089516
S11300C087E690E00E9440000E94590088E40E9464
S11300D04B008AE00E944B008824839499249394D3
S11300E0AA24A394BB24B394CC24C394DD24D39432
S11300F08091C000882324F40E9452000E944B0087
S1130100C9B1C470D9B1D87019B1107109B10072F4
S113011089B18074F82E89B18078E82EDD2081F0D1
S1130120C1110EC02FEF86E791E02150804090402E
S1130130E1F700C000004A9903C080E30E944B002D
S1130140CC2081F0D1110EC02FEF86E791E0215031
S113015080409040E1F700C000004B9903C081E368
S11301600E944B00BB2081F011110EC02FEF86E7D7
S113017091E0215080409040E1F700C000004C998C
S113018003C082E30E944B00AA2081F001110EC03B
S11301902FEF86E791E0215080409040E1F700C0C6
S11301A000004D9903C083E30E944B00992081F025
S11301B0F1100EC02FEF86E791E02150804090406F
S11301C0E1F700C000004E9903C084E30E944B0095
S11301D0882081F0E1100EC02FEF86E791E02150D6
S11301E080409040E1F700C000004F9903C085E3D0
S11301F00E944B008FE39CE90197F1F700C00000D7
S11302008E2C9F2CA02EB12ECD2EDC2E71CFF894E7
S1050210FFCF1A
S9030000FC
